:040000008A159D2C94
:10000800FF00030E83018316CC000A08CB008A0187
:1000180070088312A3007C08A2007D08A1000130AB
:10002800B6008614EC30FC006230FD00FD0B1A2887
:10003800FC0B1A2800008610EC30FC006230FD0032
:10004800FD0B2428FC0B242800008B01A50A250899
:10005800643A031D32280130A400A5012C30810028
:100068000B112308F0002208FC002108FD0083166C
:0E0078004B088A004C0E8300FF0E7F0E09001D
:0E0086003C3083120313FD00FD0B47280800D9
:100094001A3083120313FC00E330FD00FD0B5028DB
:0A00A400FC0B5028000000000800CB
:0A00AE000000000000000000080040
:1000B80083160313E11B63288312861365288312B2
:1000C80086178316611B6B28831206136D2883120B
:1000D80006178316E11A732883128612752883126D
:1000E80086168316611A7B28831206127D288312CE
:1000F800061683164A188328831206158528831244
:1001080006118615572086118316E1198E28831249
:1001180086139028831286178316611996288312EE
:1001280006139828831206178316E1189E2883124F
:100138008612A0288312861683166118A6288312B1
:100148000612A8288312061683164A18AE288312A8
:100158000615B028831206118615572086118316B6
:0C0168004A1CB8284A20B928432008008F
:100174007408F8027508031C750FF9027608031C4D
:10018400760FFA027708031C770FFB02F30D073092
:10019400FC00730DF80DF90DFA0DFB0D7408731CBA
:1001A400E128F8027508031C750FF9027608031C90
:1001B400760FFA027708031C770FFB02EE28F80784
:1001C40075080318750FF90776080318760FFA07F0
:1001D40077080318770FFB07F30DFC0BCB28720D80
:1001E400F80DF90DFA0DFB0D7408731C0729F802BC
:1001F4007508031C750FF9027608031C760FFA02C2
:100204007708031C770FFB021429F80775080318F5
:10021400750FF90776080318760FFA07770803189D
:10022400770FFB07F20D0730FC00720DF80DF90D86
:10023400FA0DFB0D7408721C2D29F8027508031CB5
:10024400750FF9027608031C760FFA027708031C6F
:10025400770FFB023A29F80775080318750FF90799
:1002640076080318760FFA0777080318770FFB0749
:10027400F20DFC0B1729710DF80DF90DFA0DFB0D9C
:100284007408721C5329F8027508031C750FF902CF
:100294007608031C760FFA027708031C770FFB021B
:1002A4006029F80775080318750FF907760803180D
:1002B400760FFA0777080318770FFB07F10D07305D
:1002C400FC00710DF80DF90DFA0DFB0D7408711C8D
:1002D4007929F8027508031C750FF9027608031CC6
:1002E400760FFA027708031C770FFB028629F807BA
:1002F40075080318750FF90776080318760FFA07BF
:1003040077080318770FFB07F10DFC0B6329700DB9
:10031400F80DF90DFA0DFB0D7408711C9F29F802F4
:100324007508031C750FF9027608031C760FFA0290
:100334007708031C770FFB02AC29F807750803182C
:10034400750FF90776080318760FFA07770803186C
:10035400770FFB07F00D0730FC00700DF80DF90D59
:10036400FA0DFB0D7408701CC529F8027508031CEE
:10037400750FF9027608031C760FFA027708031C3E
:10038400770FFB02D229F80775080318750FF907D0
:1003940076080318760FFA0777080318770FFB0718
:1003A400F00DFC0BAF297018E5297408F8077508DF
:1003B4000318750FF90776080318760FFA077708FC
:0803C4000318770FFB07080086
:1003CC001A3083120313FD00FD0BEA29000008000C
:1003DC00831603134A106008E1005C2083164A144C
:0203EC00080007
:1003EE00FB09FA09F909F809F80A0319F90A0319B8
:0803FE00FA0A0319FB0A0800CA
:1004060083120313FB01FA01F9018030F800F10CA5
:10041600F00C031C172A7408F90775080318750FE2
:10042600FA070318FB0A0310F01F1F2A7408FA07BD
:1004360075080318750FFB07FB0CFA0CF90CF80C82
:10044600031C0A2A7B08F3007A08F2007908F100F7
:060456007808F000080028
:10045C00710DF80DF90D7408F8027508031C750F71
:10046C00F902F00DF10D0F30FC00710DF80DF90DC6
:10047C007408701C472AF8027508031C750FF902E2
:10048C004C2AF80775080318750FF907F00DF10DD4
:10049C00FC0B3B2A7018582A7408F80775080318C7
:0804AC00750FF90700000800BC
:1004B4006C2A803083160313DB007F2AC030DB00F4
:1004C4007F2A9430DB007F2AD430DB007F2A8030FF
:1004D400DB007F2A831603135B08013A03195B2AA6
:1004E4005B08023A0319602A5B08033A0319632A7A
:1004F4005B08043A0319662A692A5C03F0005B0866
:10050400F0077008DB007008E1005C2083164A10D5
:10051400DE015E085D07840000080319992A5E085D
:100524005D0784000008E000EE21DE0A8B2A4A14ED
:020534000800BD
:0A053600FF3083160313880008004D
:0C05400083120313950117129712080094
:10054C00FF3083160313C700FF30C800FF30C9000B
:10055C00FF3083129F01C0309F0483161F179F1713
:06056C0083121F140800B9
:1005720083160313861106110612861206138613BA
:1005820083128611061186130613861206124A205A
:100592004A204A20861606168615572086114A20BA
:1005A2008615572086114A208615572086114A2023
:1005B20006128615572086114A2086155720861165
:1005C200861286178615572086114A20861306162C
:1005D20086155720861106128615572086114A2045
:1005E20086155720861106168615572086114A2031
:1005F20006128615572086118617061786160616C6
:0E0602008615572086114A2083164A140800D8
:0E061000831603134E088A004D08820008006E
:10061E00831603130711831212150C30970408006A
:10062E00831603135B08C6005C08F1000130F0006E
:10063E0071080319262BF00D7010FF3E202B700849
:10064E00C400F0097008C50080305B078400700894
:0A065E008005841370088005080071
:0C066800831203139B011D129D12080059
:10067400831603138710831212150C309D0408008F
:1006840083160313DB03DB035B08003C03184F2BC7
:10069400DB03000000000000462B00000000000007
:0606A40000000000080048
:1006AA00831203139F01C0309F0483161F179F17DD
:1006BA005B08F000F00D7010F00D7010F00D701066
:1006CA00700883129F041F14E6211F151F1D6F2B2C
:1006DA0000006B2B1F101E08F100F00183161E0884
:0806EA00F0040030F1040800E7
:1006F200831603131208013EF000F1010318F10AF8
:100702005B08F400F50103220630F2007008F400E1
:100712007108F50072080319932BF50CF40CF5130C
:10072200FF3E8C2B0430F1007408F00071080319AD
:100732009E2BF00D7010FF3E982B83120313303066
:100742007005F3007408F0007508F100F10CF00C6C
:10075200F113F10CF00CF113700895000F309705AE
:0607620073089704080073
:1007680083160313DC015C085B0784000008031987
:10077800C52B5C085B0784000008E000EE21DC0A5A
:04078800B72B080083
:10078C00831603131208013EF000F1010318F10A5D
:10079C005B08F400F50103220630F2007008F40047
:1007AC007108F50072080319E02BF50CF40CF51325
:1007BC00FF3ED92B0430F1007408F00071080319C6
:1007CC00EB2BF00D7010FF3EE52B83120313303032
:1007DC007005F3007408F0007508F100F10CF00CD2
:1007EC00F113F10CF00CF11370089B000F309D0508
:0607FC0073089D040800D3
:10080200A43083120313F0003830F100F201F30137
:020812000800DC
:1008140083160313DB01DD01DE011030DF00043039
:100824005E020318382CF0308312880083165F09A7
:100834008800572057200F3083120805F0007008F5
:100844008316DC0070080319322C5D08DB005C0899
:100854000319302CDC0CDC13DB0A292C0430DE00F9
:10086400DF0D5F100430DD07DE0A112C5B08F00099
:0208740008007A
:100876000B3083120313FD00FD0B3F2C000000001C
:02088600080068
:1008880083120313FB01FA01F901F801A001730DAA
:10089800F80D7408F8027508031C750FF90276083C
:1008A800031C760FFA027708031C770FFB0200017E
:1008B800031C0130A002F30D0730FC00730DF80D86
:1008C800F90DFA0DFB0DA00D7408731C7D2CF802B0
:1008D8007508031C750FF9027608031C760FFA02D7
:1008E8007708031C770FFB020001031C0130A002EC
:1008F8008E2CF80775080318750FF9077608031882
:10090800760FFA0777080318770FFB07000103181B
:100918000130A007F30DFC0B622C720DF80DF90DD8
:10092800FA0DFB0DA00D7408731CAC2CF8027508A9
:10093800031C750FF9027608031C760FFA02770874
:10094800031C770FFB020001031C0130A002BD2C21
:10095800F80775080318750FF90776080318760F56
:10096800FA0777080318770FFB070001031801300F
:10097800A007F20D0730FC00720DF80DF90DFA0D05
:10098800FB0DA00D7408721CDB2CF8027508031C03
:10099800750FF9027608031C760FFA027708031C14
:1009A800770FFB020001031C0130A002EC2CF807B2
:1009B80075080318750FF90776080318760FFA07F4
:1009C80077080318770FFB07000103180130A00709
:1009D800F20DFC0BC02C710DF80DF90DFA0DFB0D85
:1009E800A00D7408721C0A2DF8027508031C750FF7
:1009F800F9027608031C760FFA027708031C770FB2
:100A0800FB020001031C0130A0021B2DF80775082A
:100A18000318750FF90776080318760FFA07770891
:100A28000318770FFB07000103180130A007F10D29
:100A38000730FC00710DF80DF90DFA0DFB0DA00D36
:100A48007408711C392DF8027508031C750FF9021A
:100A58007608031C760FFA027708031C770FFB024F
:100A68000001031C0130A0024A2DF807750803187D
:100A7800750FF90776080318760FFA077708031831
:100A8800770FFB07000103180130A007F10DFC0BDD
:100A98001E2D700DF80DF90DFA0DFB0DA00D740843
:100AA800711C682DF8027508031C750FF902760889
:100AB800031C760FFA027708031C770FFB0200016C
:100AC800031C0130A002792DF80775080318750F6B
:100AD800F90776080318760FFA0777080318770FCF
:100AE800FB07000103180130A007F00D0730FC00D8
:100AF800700DF80DF90DFA0DFB0DA00D7408701CA2
:100B0800972DF8027508031C750FF9027608031C67
:100B1800760FFA027708031C770FFB020001031C0B
:100B28000130A002A82DF80775080318750FF907FA
:100B380076080318760FFA0777080318770FFB076C
:100B4800000103180130A007F00DFC0B7C2D701874
:100B5800BB2D7408F80775080318750FF907760890
:100B68000318760FFA0777080318770FFB070800B2
:100B780083120313F801F9011030FC00710DF80D10
:100B8800F90D7408F8027508031C750FF9020318AB
:100B9800D42D7408F80775080318750FF9070310A2
:0A0BA800F00DF10DFC0BC22D08004A
:100BB200831203132230FC00F801F901FA01FB0150
:100BC200FC0303190F2E0310FB0CFA0CF90CF80CA2
:100BD200F30CF20CF10CF00C031CE12DFC030319D5
:100BE200012E7408F80775080318750FF9077608BF
:100BF2000318760FFA0777080318770FFB07E52D1E
:100C02007408F80775080318750FF90776080318B2
:0E0C1200760FFA0777080318770FFB07080024
:100C2000831203137408003A031D2B2E7508003A33
:100C3000031D2B2E7608003A031D2B2E7708003A51
:100C4000031D2B2EFF30F000FF30F100FF30F200CB
:100C50007F30F300080083120313FC01F71BFC0A2A
:100C6000FD01FB01FA01F901F80173087204710436
:100C700070040319BF2E73087706A000A01BFD099E
:100C8000F71F4D2EF409F509F609F709F40A0319BF
:100C9000F50A0319F60A0319F70AF31F5A2EF00989
:100CA000F109F209F309F00A0319F10A0319F20A2A
:100CB0000319F30A73087704A000A01B7B2EBA2047
:100CC000FC1B982EFD1FBF2EF009F109F209F30954
:100CD000F00A0319F10A0319F20A0319F30AF809D1
:100CE000F909FA09FB09F80A0319F90A0319FA0ABA
:100CF0000319FB0ABF2EF71F922EF31B8C2E7308CD
:100D0000FB007208FA007108F9007008F800F3019E
:100D1000F201F101F001622EF301F201F101F001A3
:100D2000F00A0034F309F209F109F009FC175F2E0B
:100D3000F80A0319F90A0319FA0A0319FB0A7408D5
:100D40007802031D622E75087902031D622E760853
:100D50007A02031D622E77087B02031D622EFB01BF
:100D6000FA01F901F801F00A0319F10A0319F20A6C
:100D70000319F30AF31F622EA0012016FF34A0010D
:0A0D80007C1CC32EF721003E080082
:100D8A00831203137408003A031DD42E7508003A1F
:100D9A00031DD42EFF30F0007F30F10008008312CB
:100DAA000313FD01F901F8017108700403190034F5
:100DBA0071087506FA00FA1BFD09FB01F51FEA2EF8
:100DCA00F409F509F40A0319F50AF11FF12EF009DD
:100DDA00F109F00A0319F10A71087504FA00FA1BFD
:100DEA00062F2E227B18192FFD1F0034F009F10956
:100DFA00F00A0319F10AF809F909F80A0319F90AB4
:100E0A000034F51F152FF11B112F7108F900700816
:100E1A00F800F101F001F92EF101F001F00A0034B5
:100E2A00F109F009FB0AF62EF80A0319F90A7408FF
:100E3A007802031DF92E75087902031DF92EF901AE
:100E4A00F801F00A0319F10AF11FF92E0000FF3424
:020E5A0008008E
:100E5C000A247008CF000F3083120805F000031924
:0E0E6C00392F3B24312F83164F08F000080069
:100E7A0008238A110A128000840ACD0A0319CE0AAD
:080E8A00F003031D3D2F0800D9
:100E9200FF30831603138500FD308600F83087008B
:100EA2008901FF308800831289018610B92201303E
:100EB200E1005C200C308316E1005C2001308316D7
:100EC200DB000430DC002C30DD005A22A6229B22FB
:100ED200831212109210593083169200A02212101F
:100EE200921059308316920034230F233A2307308D
:100EF2008316DB00DC0117232A3081002C30831299
:0A0F02008100B0308B00B60108003A
:100F0C00831203138719912F871B912F871A912F07
:100F1C000130F000922FF001700803199B2F071E6F
:100F2C009B2F071F9B2FF0019D2F0130F000701895
:100F3C00A22F8316CA10A42F8316CA14CA1CAE2F54
:100F4C00831209145430FD00FD0BAA2F0000091068
:020F5C0008008B
:101000008A1101248A15E830F4000330F500F60156
:10101000F7018A11D9258A1570088316D70071083F
:10102000D8007208D9007308DA004F08F40050089D
:10103000F500F601F7018A1144248A157008831619
:10104000D7007108D8007208D9007308DA00700858
:10105000F5007108F6007208F7007308F800F80C44
:10106000F70CF60CF50CF813F80CF70CF60CF50C65
:10107000F8137508F0007608F1007708F200780898
:10108000F300F30CF20CF10CF00CF3137008D30026
:101090007108D4008A1101248A1583165108F400BE
:1010A0005208F500F601F7018A11D9258A15831631
:1010B0005308F9005408FA00FB01FC010330F80062
:1010C0007908F4007A08F5007B08F6007C08F70040
:1010D000780803197228F40DF50DF60DF70D74104C
:1010E000FF3E69288A1144248A1570088316D700A8
:1010F0007108D8007208D9007308DA000A30F400C9
:101100000030F5005308F0005408F1008A11BC25A6
:101110008A1570088316D3007108D400003071025C
:10112000031D94280330700203189728080046080E
:1011300084005A08003C031DA7285908003C031DE1
:10114000A7285808003C031DA7285708003C03188F
:10115000EA284408800454080319C028D501D601A0
:1011600000305602031DB628540855020318C02843
:10117000DB018A1142238A15D50A0319D60AB02841
:101180005308DB008A1142238A154508800554085C
:101190000319DC28D501D60100305602031DD228E0
:1011A000540855020318DC28DB018A1142238A15F2
:1011B000D50A0319D60ACC285308DB008A1142232A
:1011C0008A150130D702031CD802031CD902031C64
:0A11D000DA0299284508800508009E
:1011DA00CF2B831603133E08F0003F08F100F201FB
:1011EA00F3018830F4001330F500F601F7018A1193
:1011FA00D9258A15FF30F4000330F500F601F7010E
:10120A008A1110268A1570088316CF007108D0003B
:10121A000130E1008A115C208A1501308316DB0057
:10122A000430DC005F30DD008A115A228A15023050
:10123A00DB000430DC006930DD008A115A228A158D
:10124A00E830F4000330F5004F08F0005008F100D0
:10125A008A11C5268A157008303E8316E0008A1165
:10126A00EE218A152E30E0008A11EE218A156430AB
:10127A00F4000030F5004F08F0005008F1008A1120
:10128A00C5268A150A30F4000030F5008A11C526F1
:10129A008A157808F0007908F1007008303E831644
:1012AA00E0008A11EE218A150A30F4000030F500B8
:1012BA004F08F0005008F1008A11C5268A150A3035
:1012CA00F4000030F5008A11C5268A157808F00066
:1012DA007908F1007008303E8316E0008A11EE2189
:1012EA008A155D30DB008A11B4238A15E92B83162F
:1012FA003A08F0003B08F100F201F3018830F400EB
:10130A001330F500F601F7018A11D9258A15FF3045
:10131A00F4000330F500F601F7018A1110268A1548
:10132A0070088316CF007108D0000130E1008A11DD
:10133A005C208A1501308316DB000430DC004F3054
:10134A00DD008A115A228A150230DB000430DC00E3
:10135A005930DD008A115A228A15E830F400033028
:10136A00F5004F08F0005008F1008A11C5268A15C9
:10137A007008303E8316E0008A11EE218A152E305D
:10138A00E0008A11EE218A156430F4000030F5007D
:10139A004F08F0005008F1008A11C5268A150A3054
:1013AA00F4000030F5008A11C5268A157808F00085
:1013BA007908F1007008303E8316E0008A11EE21A8
:1013CA008A150A30F4000030F5004F08F000500882
:1013DA00F1008A11C5268A150A30F4000030F5009A
:1013EA008A11C5268A157808F0007908F100700874
:1013FA00303E8316E0008A11EE218A15AE30DB00FA
:10140A008A11B4238A15E92B83163C08F0003D089B
:10141A00F100F201F3018830F4001330F500F6010F
:10142A00F7018A11D9258A15FF30F4000330F50037
:10143A00F601F7018A1110268A1570088316CF0063
:10144A007108D0000130E1008A115C208A15013050
:10145A008316DB000430DC00B030DD008A115A222A
:10146A008A150230DB000430DC00AA30DD008A1164
:10147A005A228A15E830F4000330F5004F08F000CC
:10148A005008F1008A11C5268A157008303E831665
:10149A00E0008A11EE218A152E30E0008A11EE2131
:1014AA008A156430F4000030F5004F08F000500847
:1014BA00F1008A11C5268A150A30F4000030F500B9
:1014CA008A11C5268A157808F0007908F100700893
:1014DA00303E8316E0008A11EE218A150A30F400A4
:1014EA000030F5004F08F0005008F1008A11C526B7
:1014FA008A150A30F4000030F5008A11C5268A15CB
:10150A007808F0007908F1007008303E8316E00090
:10151A008A11EE218A156D30DB008A11B4238A15EF
:10152A00E92B83164008F0004108F100F201F301AB
:10153A008830F4001330F500F601F7018A11D92535
:10154A008A15FF30F4000330F500F601F7018A111D
:10155A0010268A1570088316CF007108D000013052
:10156A00E1008A115C208A1501308316DB00043001
:10157A00DC00A030DD008A115A228A150230DB0015
:10158A000430DC004B30DD008A115A228A15E8301B
:10159A00F4000330F5004F08F0005008F1008A11FA
:1015AA00C5268A157008303E8316E0008A11EE219E
:1015BA008A152E30E0008A11EE218A156430F40073
:1015CA000030F5004F08F0005008F1008A11C526D6
:1015DA008A150A30F4000030F5008A11C5268A15EA
:1015EA007808F0007908F1007008303E8316E000B0
:1015FA008A11EE218A150A30F4000030F5004F08EE
:10160A00F0005008F1008A11C5268A150A30F40044
:10161A000030F5008A11C5268A157808F000790885
:10162A00F1007008303E8316E0008A11EE218A1517
:10163A003F30DB008A11B4238A15E92B831642084E
:10164A00F0004308F100F201F3018830F40013308E
:10165A00F500F601F7018A11D9258A15FF30F40041
:10166A000330F500F601F7018A1110268A15700871
:10167A008316CF007108D0000130E1008A115C2086
:10168A008A1501308316DB000430DC004130DD00AE
:10169A008A115A228A150230DB000430DC003B3002
:1016AA00DD008A115A228A15E830F4000330F50069
:1016BA004F08F0005008F1008A11C5268A157008F3
:1016CA00303E8316E0008A11EE218A152E30E000A2
:1016DA008A11EE218A156430F4000030F5004F08B3
:1016EA00F0005008F1008A11C5268A150A30F40064
:1016FA000030F5008A11C5268A157808F0007908A5
:10170A00F1007008303E8316E0008A11EE218A1536
:10171A000A30F4000030F5004F08F0005008F100DC
:10172A008A11C5268A150A30F4000030F5008A119C
:10173A00C5268A157808F0007908F1007008303E4D
:10174A008316E0008A11EE218A153730DB008A11F0
:10175A00B4238A15E92B01308312A40039083A040C
:10176A000130031D0030B900BA000030BA008614F7
:10177A000530FC00B430FD00FD0BC12BFC0BC12B66
:10178A0086100530FC00B430FD00FD0BCA2BFC0BA3
:10179A00CA2BE92B831203136F08013A0319EE28A7
:1017AA006F08023A03197C296F08033A0319092AB8
:1017BA006F08053A0319962A6F08063A0319232B6C
:0A17CA006F08073A0319B02B08005E
:1017D40083160313DB018A1155238A157008BE0092
:1017E4007108BF000130DB008A1155238A15700887
:1017F400BA007108BB000230DB008A1155238A1538
:101804007008BC007108BD000330DB008A11552349
:101814008A157008C0007108C1000430DB008A1109
:1018240055238A157008C2007108C3003E08F000F1
:101834003F08F1000530F4000030F5008A1103225E
:101844008A15103070078316D30071080318013EFF
:10185400D4003C08F0003D08F1000330F4000030EF
:10186400F5008A1103228A151430F007003003189A
:10187400013EF1070F30F4000030F5008A11BC2559
:101884008A15700883165302F2007108031C013E86
:101894005402F30080307306F0008030003A700286
:1018A400031D562C37307202031C642C8312091555
:1018B4006D30FC004630FD00FD0B5E2CFC0B5E2CF5
:1018C4000911702C831289145530FC00BC30FD00C2
:1018D400FD0B6A2CFC0B6A2C000089100C30F40000
:1018E4000030F50083164208F0004308F1008A1125
:1018F400BC258A1570088316D1007108D2005030B7
:10190400F4000030F5004008F0004108F1008A11AD
:10191400BC258A1570088316CF007108D0005108C1
:10192400DB008A1179238A1583164F08DB008A119C
:06193400C6238A1508001D
:10193A0012258A1149278A158A1186278A15EA23C8
:10194A003608013A031DDA2C01308316E1008A11A8
:10195A005C208A1501308316DB000530DC00263056
:10196A00DD008A115A228A15F430CF000130D000E6
:10197A001030D1002730D20000208312861418308C
:10198A00FC008830FD00FD0BC82CFC0BC82C0000A5
:10199A00000086101830FC008830FD00FD0BD32CA7
:1019AA00FC0BD32C00000000C22CEF018A112E2759
:1019BA008A1570088312EF007008003A0319E62CA2
:1019CA00ED20831203132408003A031DED2CA52CE5
:0C19DA00A401A5012C308100A12CF22CEE
:101A2400243084004B3083120313F000AF3083164C
:101A3400CD000730CE008A113D278A15A0308400DE
:101A44001A308312F000F8308316CD000C30CE002B
:081A54008A113D278A150800E4
:020F5E0000345D
:020F600000345B
:0C0F62004534523452344F3452340034C1
:100F6E0057346F3472346B3420344D346F346434F0
:040F7E0065340034A2
:020F8200003439
:040F840056340034AB
:040F880001340034FC
:080F8C00553435343D340034C6
:040F9400563400349B
:100F980057346F3472346B3420344D346F346434C6
:040FA8006534003478
:080FAC00553434343D340034A7
:100FB40057346F3472346B3420344D346F346434AA
:040FC400653400345C
:080FC800553432343D3400348D
:040FD000563400345F
:100FD40057346F3472346B3420344D346F3464348A
:040FE400653400343C
:080FE800553431343D3400346E
:040FF000563400343F
:1019F00057346F3472346B3420344D346F34643464
:041A00006534003415
:081A0400553433343D34003445
:041A0C005634003418
:101A100057346F3472346B3420344D346F34643443
:041A200065340034F5
:02400E007A3BFB
:00000001FF
